:020000040000FA
:100000000C9462000C948A000C948A000C948A0070
:100010000C948A000C948A000C948A000C948A0038
:100020000C948A000C948A000C948A000C94560656
:100030000C948A000C948A000C948A000C948A0018
:100040000C940C060C948A000C94DA050C94B405FC
:100050000C948A000C948A000C948A000C948A00F8
:100060000C948A000C948A000000000024002700F1
:100070002A0000000000250028002B0000000000DE
:1000800023002600290004040404040404040202DA
:100090000202020203030303030301020408102007
:1000A0004080010204081020010204081020000012
:1000B0000008000201000003040700000000000027
:1000C0000000120711241FBECFEFD8E0DEBFCDBF66
:1000D00011E0A0E0B1E0ECE5F7E102C005900D927F
:1000E000A43EB107D9F723E0A4EEB1E001C01D9210
:1000F000A434B207E1F710E0C2E6D0E004C02197D3
:10010000FE010E94A60BC136D107C9F70E94E7077E
:100110000C94AC0B0C940000CF92DF92EF92FF9204
:10012000DC01A03282E0B807D4F5A53BB10514F09C
:10013000A4EBB0E04091420328E830E0241B3109F1
:1001400047FD3395220F331F220F331F6901330FF1
:10015000EE08FF084091430328E532E0241B3109F3
:1001600047FD3395220F331F220F331F032E000C40
:10017000440B550B2C193D094E095F09B7FF02C00E
:10018000B0E0A0E00E94610B24EB30E040E050E0E2
:100190000E94370BC20ED31EE41EF51ED601E0915D
:1001A0004103EC3080F52091420388E890E0821B07
:1001B000910927FD9395880F991F880F991FA817FC
:1001C000B90784F02091430388E592E0821B9109EE
:1001D00027FD9395880F991F880F991FA817B907B6
:1001E0000CF4CD010297880F991F4FB7F8942E2F6A
:1001F00030E0F901EE0FFF1FE20FF31FEB56FD4F4A
:10020000928381834FBFFF90EF90DF90CF9008954E
:1002100096E0899FD0011124A654BD4F90967C93FF
:100220006E935F9791E091969C939197E09127034D
:10023000F091280390912603992339F0309751F0DB
:10024000811108C08091D6020994309719F05C960C
:100250008C91FACF0895CF92DF92EF92FF920F9395
:100260001F9396E0899FF0011124E654FD4F11A2DF
:10027000278D30A12130310551F178F02230310540
:1002800009F451C02330310509F452C01F910F9178
:10029000FF90EF90DF90CF9008956623B9F361E06F
:1002A00070E00E9408012FB7F8948091F4019091BA
:1002B000F501A091F601B091F7012FBF80931203D1
:1002C00090931303A0931403B0931503DFCF9FB74C
:1002D000F894C090F401D090F501E090F601F09010
:1002E000F7019FBF00911203109113032091140393
:1002F00030911503C01AD10AE20AF30A00912403CF
:100300001091250330E020E00C151D052E053F055A
:1003100050F462E070E01F910F91FF90EF90DF903A
:10032000CF900C9408016111B1CF63E070E0F3CF7E
:1003300070E060E0F0CFAF92BF92CF92DF92EF9289
:10034000FF920F931F93CF93DF936C017B018B017F
:10035000040F151FEB015E01AE18BF08C017D107CF
:1003600059F06991D601ED91FC910190F081E02D59
:10037000C6010995892B79F7C501DF91CF911F91AE
:100380000F91FF90EF90DF90CF90BF90AF900895C6
:10039000FC01538D448D252F30E0842F90E0821B8B
:1003A000930B541710F0CF96089501970895FC0110
:1003B000918D828D981761F0A28DAE0FBF2FB11D68
:1003C0005D968C91928D9F5F9F73928F90E00895C0
:1003D0008FEF9FEF0895FC01918D828D981731F07A
:1003E000828DE80FF11D858D90E008958FEF9FEFCE
:1003F0000895FC01918D228D892F90E0805C9F4FA4
:10040000821B91098F739927089588EF91E00E94CC
:10041000F90121E0892B09F420E0822F089580E082
:1004200090E0892B29F00E94050281110C940000B4
:100430000895FC01A48DA80FB92FB11DA35ABF4F79
:100440002C91848D90E001968F739927848FA689D3
:10045000B7892C93A089B1898C91837080648C9327
:10046000938D848D981306C00288F389E02D8081D6
:100470008F7D80830895EF92FF920F931F93CF9308
:10048000DF93EC0181E0888F9B8D8C8D98131AC0CF
:10049000E889F989808185FF15C09FB7F894EE89B6
:1004A000FF896083E889F989808183708064808313
:1004B0009FBF81E090E0DF91CF911F910F91FF905E
:1004C000EF900895F62E0B8D10E00F5F1F4F0F7306
:1004D0001127E02E8C8D8E110CC00FB607FCFACFC1
:1004E000E889F989808185FFF5CFCE010E94190244
:1004F000F1CFEB8DEC0FFD2FF11DE35AFF4FF08292
:100500009FB7F8940B8FEA89FB8980818062CFCFF7
:10051000CF93DF93EC01888D8823B9F0AA89BB893A
:10052000E889F9898C9185FD03C0808186FD0DC025
:100530000FB607FCF7CF8C9185FFF2CF808185FF46
:10054000EDCFCE010E941902E9CFDF91CF9108953E
:10055000833081F028F4813099F08230A9F0089539
:100560008730A9F08830C9F08430B1F480918000E0
:100570008F7D03C0809180008F77809380000895E5
:1005800084B58F7784BD089584B58F7DFBCF80912E
:10059000B0008F778093B00008958091B0008F7D78
:1005A000F9CFCF93DF93282F30E0F901E255FF4FC9
:1005B0008491F901E656FF4FD491F901EA57FF4FB4
:1005C000C491CC23A1F081110E94A802EC2FF0E08D
:1005D000EE0FFF1FE458FF4FA591B491EC91ED236E
:1005E00081E090E009F480E0DF91CF91089580E010
:1005F00090E0FACF862F0C94D1021F93CF93DF9314
:10060000282F30E0F901E255FF4F8491F901E656B9
:10061000FF4FD491F901EA57FF4FC491CC23A9F0C1
:10062000162F81110E94A802EC2FF0E0EE0FFF1FA1
:10063000EE58FF4FA591B4918FB7F894EC9111113A
:1006400008C0D095DE23DC938FBFDF91CF911F913F
:100650000895DE2BF8CF862F642F0C94FD02CF93E4
:10066000DF9390E0FC01E656FF4F24918A579F4F9D
:10067000FC0184918823C9F090E0880F991FFC0148
:10068000E859FF4FA591B491FC01EE58FF4FC59179
:10069000D49161110DC09FB7F8948C91209582235D
:1006A0008C938881282328839FBFDF91CF91089561
:1006B000623051F49FB7F8943C91822F8095832348
:1006C0008C93E8812E2BEFCF8FB7F894EC912E2BE3
:1006D0002C938FBFEACF862F642F0C942F033FB744
:1006E000F8948091E8019091E901A091EA01B0911C
:1006F000EB0126B5A89B05C02F3F19F00196A11D5F
:10070000B11D3FBFBA2FA92F982F8827BC01CD015B
:10071000620F711D811D911D42E0660F771F881FBA
:10072000991F4A95D1F708958F929F92AF92BF92E9
:10073000CF92DF92EF92FF924B015C010E946F0318
:100740006B017C010E946F036C197D098E099F0962
:10075000683E734081059105A8F321E0821A910853
:10076000A108B10888EEC80E83E0D81EE11CF11C78
:1007700081149104A104B10429F7FF90EF90DF9058
:10078000CF90BF90AF909F908F900895089590E084
:1007900080E00895FB0101900020E9F73197AF0157
:1007A000461B570BDC01ED91FC910280F381E02D9B
:1007B00009940F931F93CF93DF93EC010E94CA0318
:1007C0008C016BE371E0CE010E94CA03800F911F80
:1007D000DF91CF911F910F910895CF93DF93EC019B
:1007E00060E08E810E94FD0261E08E810E94FD0228
:1007F00060E08E810E94FD028BE891E00197F1F7A5
:10080000DF91CF910895CF92DF92EF92FF920F93F5
:100810001F93CF93DF936C017C0187E0E80EF11CFE
:10082000D0E0C0E0062F10E0B8010C2E02C0759594
:1008300067950A94E2F76170F70181917F010E9448
:10084000FD022196C430D10579F7C601DF91CF9121
:100850001F910F91FF90EF90DF90CF900C94ED03DC
:10086000CF92DF92EF92FF920F931F93CF93DF937C
:10087000EC01F62E642F8C810E94FD028D818F3F4A
:1008800019F060E00E94FD020F2D10E08F8584FFBB
:1008900025C06E0187E0C80ED11CF12CE12CB801F7
:1008A0000E2C02C0759567950A94E2F76170F60107
:1008B00081916F010E94FD02FFEFEF1AFF0A88E0AD
:1008C000E816F10461F7CE01DF91CF911F910F91EE
:1008D000FF90EF90DF90CF900C94ED03B80184E08F
:1008E000759567958A95E1F7CE010E9403046F2DF7
:1008F000CE01DF91CF911F910F91FF90EF90DF908C
:10090000CF900C94030440E0682F89E293E00C94AC
:10091000300481E00E9483048BE39FE10197F1F7AB
:100920000895CF93DF93823029F490913803986033
:100930009093380380933C0310923D0380E48093AE
:100940003E0380E180933F0380E58093400361E0B4
:1009500080912D030E942F0380912E038F3F19F069
:1009600061E00E942F0361E080912F030E942F031A
:10097000C9E2D3E09E01295233408091380384FDBF
:100980000BC084E090E021962817390744F461E019
:100990008E810E942F03EECF88E090E0F4CF8BE3AE
:1009A0009DE00197F1F760E080912D030E94FD0228
:1009B00060E080912F030E94FD0280912E038F3F03
:1009C00019F060E00E94FD028091380384FD34C07C
:1009D00063E089E293E00E940304CBE4D6E4CE0115
:1009E0000197F1F763E089E293E00E940304219705
:1009F000F1F763E089E293E00E94030483E592E06B
:100A00000197F1F762E089E293E00E94030480918C
:100A1000380380620E94830484E0809339038CE071
:100A20000E9483040E94890482E080933A0386E056
:100A3000DF91CF910C94830480620E9483048BE445
:100A400096E40197F1F78091380380620E94830455
:100A500083E592E00197F1F78091380380620E946C
:100A60008304D5CF90913C03691710F06FEF690FA5
:100A7000E62FF0E0E75DFC4F9489890F80680C94C5
:100A80008304CF93DF9364E873E080E090E00E94FA
:100A900094030E94890460E080E00E9432056EE3C6
:100AA00071E089E293E00E94D90361E08BE00E944B
:100AB000FD021092E5011092E401C091E401D09191
:100AC000E501CB35D1057CF4CE010E948C0064E1B8
:100AD00070E080E090E00E9494032196D093E501BD
:100AE000C093E401EACF68EB7BE080E090E00E94F5
:100AF00094038AE590E09093E5018093E401C0912E
:100B0000E401D091E501D7FD0FC0CE010E948C0019
:100B100064E170E080E090E00E9494032197D0931C
:100B2000E501C093E401EBCF60E08BE0DF91CF9172
:100B30000C94FD0260E080E00E9432056EE471E0FA
:100B400089E293E00E94D90361E080E00E943205CF
:100B50006DE571E089E293E00C94D90341E00E94D5
:100B6000300481E090E008951F920F920FB60F922B
:100B700011242F933F934F935F936F937F938F93A2
:100B80009F93AF93BF93EF93FF9388EF91E00E9401
:100B90001902FF91EF91BF91AF919F918F917F913A
:100BA0006F915F914F913F912F910F900FBE0F90DA
:100BB0001F9018951F920F920FB60F9211242F932A
:100BC0008F939F93EF93FF93E0910802F0910902B6
:100BD0008081E0910E02F0910F0282FD1BC0908196
:100BE000809111028F5F8F7320911202821741F062
:100BF000E0911102F0E0E850FE4F958F80931102D2
:100C0000FF91EF919F918F912F910F900FBE0F90B9
:100C10001F9018958081F4CF1F920F920FB60F92FC
:100C200011242F933F938F939F93AF93BF93809102
:100C3000F4019091F501A091F601B091F701309186
:100C4000E70123E0230F2D3758F50196A11DB11DB3
:100C50002093E7018093F4019093F501A093F601AE
:100C6000B093F7018091E8019091E901A091EA0128
:100C7000B091EB010196A11DB11D8093E801909305
:100C8000E901A093EA01B093EB01BF91AF919F916D
:100C90008F913F912F910F900FBE0F901F9018953D
:100CA00026E8230F0296A11DB11DD2CF1F920F92ED
:100CB0000FB60F9211242F933F934F935F936F932F
:100CC0007F938F939F93AF93BF93CF93DF93EF93D4
:100CD000FF938091E601C091B902D0E087FF24C064
:100CE00010928500109284008091E6018F5F8093BE
:100CF000E6018091E601082E000C990B8C179D07E8
:100D000024F48091E6018C30C4F1809184009091AC
:100D10008500049680349C4908F47AC08091840050
:100D200090918500049676C08091E601082E000C13
:100D3000990B8C179D07C4F6E091E6018E2FEE0FFC
:100D4000990BFC01EE0FFF1FE80FF91FEB56FD4F4B
:100D5000808186FFC9CFE091E6018E2FEE0F990BBF
:100D6000FC01EE0FFF1FE80FF91FEB56FD4F8081CE
:100D700060E08F730E94FD02B7CF20918400309114
:100D80008500E091E6018E2FEE0F990BFC01EE0F2E
:100D9000FF1FE80FF91FEB56FD4F81819281820FF3
:100DA000931F9093890080938800E091E6018E2F35
:100DB000EE0F990BFC01EE0FFF1FE80FF91FEB562A
:100DC000FD4F808186FF11C0E091E6018E2FEE0F6E
:100DD000990BFC01EE0FFF1FE80FF91FEB56FD4FBB
:100DE000808161E08F730E94FD02FF91EF91DF919E
:100DF000CF91BF91AF919F918F917F916F915F91B3
:100E00004F913F912F910F900FBE0F901F9018950B
:100E100080E49CE990938900809388008FEF809311
:100E2000E601E3CF1092FB011092FA0188EE93E005
:100E3000A0E0B0E08093FC019093FD01A093FE013F
:100E4000B093FF0187E191E09093F9018093F8015D
:100E500085EC90E0909305028093040284EC90E08E
:100E6000909307028093060280EC90E09093090231
:100E70008093080281EC90E090930B0280930A0229
:100E800082EC90E090930D0280930C0286EC90E04F
:100E900090930F0280930E02109211021092120290
:100EA00010921302109214028091B9028C3008F053
:100EB0008AC091E0980F9093B9028093410390E02B
:100EC000FC01EE0FFF1FE80FF91FEB56FD4F88EBFB
:100ED0009BE09283818310922C0310922B0383E377
:100EE00091E090932A038093290382E180932D035C
:100EF0008FEF80932E0383E180932F0381E1809312
:100F0000300380E1809331038FE0809332038EE0E1
:100F100080933303109234031092350310923603FA
:100F2000109237031092380381E00E9491041092CE
:100F3000BC021092C0021092BF021092C10289E25C
:100F400091E09093BB028093BA02E6EDF2E010824A
:100F5000148213821582369683E0E231F807B9F7DE
:100F600083E091E090931D0380931C0380E091E067
:100F700090931F0380931E0384E08093200383E0FB
:100F80008093210387E091E090931B0380931A03E1
:100F90008AE090E0909323038093220384EF91E012
:100FA0009093250380932403109228031092270323
:100FB000109216031092170310921803109219033F
:100FC0001092260308958FEF8093410384CF789485
:100FD00084B5826084BD84B5816084BD85B582603E
:100FE00085BD85B5816085BD80916E0081608093EF
:100FF0006E00109281008091810082608093810058
:101000008091810081608093810080918000816067
:10101000809380008091B10084608093B1008091C2
:10102000B00081608093B00080917A0084608093EA
:101030007A0080917A00826080937A0080917A00B1
:10104000816080937A0080917A00806880937A0032
:101050001092C10061E08BE00E942F0361E08CE000
:101060000E942F03809141038C3008F051C061E051
:1010700089E00E942F0380914103282F30E0F9017D
:10108000EE0FFF1FE20FF31FEB56FD4F9081907C98
:101090009960908310924203109243032CE0622FD8
:1010A0000E949A0B829FB001112430E020E0AB0136
:1010B000420F531FFA01EE0FFF1FE40FF51FEB560F
:1010C000FD4F908196FD16C02F5F3F4F2C303105AC
:1010D00071F781110FC01092800082E0809381002F
:1010E0001092850010928400B19A80916F00826006
:1010F00080936F00E09141038E2F90E0FC01EE0F92
:10110000FF1FE80FF91FEB56FD4F8081806480833D
:1011100060E08BE00E94FD0260E08CE00E94FD0236
:10112000E0910802F091090282E08083E0910402DC
:10113000F09105021082E0910602F09107028FEC17
:10114000808310921002E0910C02F0910D0286E073
:101150008083E0910A02F0910B028081806180839C
:10116000E0910A02F0910B02808188608083E09117
:101170000A02F0910B02808180688083E0910A026C
:10118000F0910B0280818F7D80836EE671E088EFA5
:1011900091E00E94D9030E949A0582E00E94910486
:1011A000812C912C5401839440E0442E40E0542E35
:1011B00066246394712C51E0509326038FB7F89402
:1011C0004091F4015091F5016091F6017091F701A1
:1011D0008FBF8091160390911703A0911803B091CF
:1011E0001903481B590B6A0B7B0B809122039091CA
:1011F0002303B0E0A0E084179507A607B70708F01F
:1012000009C1C0E080912003C81760F4E0911C037D
:10121000F0911D03EC0FF11D62E080810E942F030D
:10122000CF5FF0CF312C80912103381608F05FC0DA
:10123000032D10E0E0911E03F0911F03E00FF11F5A
:1012400061E080810E942F03E0911E03F0911F0353
:10125000E00FF11F60E080810E94FD02D501C40112
:10126000032C04C0880F991FAA1FBB1F0A94D2F732
:101270006C017C01E094F094212C809120032816CD
:10128000F8F4C22DD0E0E0911C03F0911D03EC0FA7
:10129000FD1F80810E94D1022496CC0FDD1FC65411
:1012A000DD4F892B41F4888199818C299D2999836F
:1012B00088832394E2CF888199818E219F21F7CF63
:1012C000E0911E03F0911F03E00FF11F61E08081A8
:1012D0000E94FD0280911E0390911F03080F191FA9
:1012E00060E0F80180810E942F0333949CCFCAEB09
:1012F000D2E0FE01878D90A1892B31F4148E8FEFFF
:101300009FEF968F858F11A2369692E0E63FF90700
:1013100089F7F12C80912003F81608F051C0E12CD8
:101320000F2D10E0000F111F0E531D4F20912103B0
:10133000E21608F043C0F801608171810E2C02C0F2
:10134000769567950A94E2F7F29E900111242E0D8E
:10135000311DEAEBF2E080E0458D568D241735070C
:1013600009F483C18F5F36968A30B1F760FF24C0DD
:10137000EAEBF2E090E080E0448D411118C0E0918A
:101380001A03F0911B03E20FF31F408156E0589FB0
:10139000F001599FF00D1124E654FD4F448F368F14
:1013A000258F10A2178E61E00E942B0105C00196C7
:1013B00036968A30910501F7E394B8CFF394AACF1B
:1013C00080E099A19111892F269692E0C63FD90716
:1013D000C1F79FB7F8944091F4015091F5016091E5
:1013E000F6017091F7019FBF4093160350931703C6
:1013F0006093180370931903882361F08091DB02D6
:10140000882341F08091D9029091DA021091D6029E
:10141000019719F01092260310E08091F20190914B
:10142000F301892B11F40E949A0588EF91E00E9444
:10143000F9011816190644F488EF91E00E94D701CB
:101440009093F1018093F0018091F0019091F1016E
:101450002091EE013091EF01232BB9F581339105F5
:10146000A1F50E9441057092EF016092EE011123F7
:1014700009F449C00E94890460E080E00E943205BE
:1014800066E871E089E293E00E94CA0361E087E0C8
:101490000E94320565EA71E089E293E00E94CA0386
:1014A00061E087E00E943205D0E0C0E08091F20167
:1014B0009091F3018C179D079CF060E971E089E23F
:1014C00093E00E94CA032196F1CFC09781F660E0B5
:1014D0008BE00E94FD021092EF011092EE01C7CF47
:1014E000FC01EE56FE4F2081211319C00196909306
:1014F000F3018093F201049731F40E9441051092A8
:10150000F3011092F2014114510409F454CE0E94E7
:101510000502882309F44FCE0E9400004CCE809132
:10152000EC019091ED0101969093ED018093EC0117
:1015300003970CF44FC00E94890460E081E00E9490
:10154000320567E971E089E293E00E94CA0361E035
:101550008CE00E94FD0264EF71E080E090E00E9468
:10156000940360E08CE00E94FD0264EF71E080E093
:1015700090E00E94940361E08CE00E94FD0264EF21
:1015800071E080E090E00E94940360E08CE00E94B3
:10159000FD0264EF71E080E090E00E94940361E05E
:1015A0008CE00E94FD0264EF71E080E090E00E9418
:1015B000940360E08CE00E94FD0264EF71E080E043
:1015C00090E00E9494030E949A051092ED011092FF
:1015D000EC0195CF64EF71E080E090E00E9494030D
:1015E0000E94890460E081E00E94320567EA71E0B0
:1015F00089E293E00E94CA0360E086E00E9432051F
:101600006CEA71E089E293E00E94CA0361E08FE036
:101610000E94320565EA71E089E293E00E94D903F5
:1016200061E084E00E94320566EB71E089E293E0BC
:101630000E94D90361E08DE00E94320565EA71E005
:1016400089E293E00E94D90360EC71E088EF91E0B9
:101650000E94D90368EB7BE080E090E00E94940355
:101660000E9489040E949A054ACF61709DCE052E82
:1016700097FB1EF400940E944E0B57FD07D00E946A
:10168000690B07FC03D04EF40C944E0B509540951B
:10169000309521953F4F4F4F5F4F0895909580951E
:1016A000709561957F4F8F4F9F4F08950E948B0BD0
:1016B000A59F900DB49F900DA49F800D911D1124A6
:1016C0000895B7FF0C94560B0E94560B821B930B88
:1016D0000895A1E21A2EAA1BBB1BFD010DC0AA1F73
:1016E000BB1FEE1FFF1FA217B307E407F50720F08B
:1016F000A21BB30BE40BF50B661F771F881F991F06
:101700001A9469F760957095809590959B01AC014E
:10171000BD01CF010895A29FB001B39FC001A39F57
:10172000700D811D1124911DB29F700D811D11241A
:10173000911D0895991B79E004C0991F961708F030
:10174000961B881F7A95C9F780950895EE0FFF1FA5
:101750000590F491E02D0994F894FFCF0607080254
:101760000304053132333435363738392A30230013
:101770000000003B029B01C8018802F901D701EB80
:1017800001000000006B032B03FA0200000000AE12
:10179000059B01C703C6030D0A00204163636573FF
:1017A00073204772616E7465640020454E54455243
:1017B00020434F4445204F52004641434520524567
:1017C000434F474E4954494F4E00436F6E6E656319
:1017D00074696F6E2045737461626C6973686564C7
:1017E000210050415353574F52443A002A003031A0
:1017F000323300534F554E44494E4720414C4152DD
:101800004D2000434F444500494E434F52524543FB
:1018100054004E4F2041434345535300434F4445EA
:1018200020494E434F525245435420594F55204171
:10183000524520554E415554484F52495A4544004F
:107E0000112484B714BE81FFF0D085E080938100F7
:107E100082E08093C00088E18093C10086E0809377
:107E2000C20080E18093C4008EE0C9D0259A86E02C
:107E300020E33CEF91E0309385002093840096BBD3
:107E4000B09BFECF1D9AA8958150A9F7CC24DD24C4
:107E500088248394B5E0AB2EA1E19A2EF3E0BF2EE7
:107E6000A2D0813461F49FD0082FAFD0023811F036
:107E7000013811F484E001C083E08DD089C08234E0
:107E800011F484E103C0853419F485E0A6D080C0E4
:107E9000853579F488D0E82EFF2485D0082F10E0AE
:107EA000102F00270E291F29000F111F8ED06801E7
:107EB0006FC0863521F484E090D080E0DECF843638
:107EC00009F040C070D06FD0082F6DD080E0C81688
:107ED00080E7D80618F4F601B7BEE895C0E0D1E017
:107EE00062D089930C17E1F7F0E0CF16F0E7DF06D8
:107EF00018F0F601B7BEE89568D007B600FCFDCFD4
:107F0000A601A0E0B1E02C9130E011968C91119780
:107F100090E0982F8827822B932B1296FA010C0160
:107F200087BEE89511244E5F5F4FF1E0A038BF0790
:107F300051F7F601A7BEE89507B600FCFDCF97BE46
:107F4000E89526C08437B1F42ED02DD0F82E2BD052
:107F50003CD0F601EF2C8F010F5F1F4F84911BD097
:107F6000EA94F801C1F70894C11CD11CFA94CF0C13
:107F7000D11C0EC0853739F428D08EE10CD085E9AC
:107F80000AD08FE07ACF813511F488E018D01DD067
:107F900080E101D065CF982F8091C00085FFFCCF94
:107FA0009093C60008958091C00087FFFCCF809118
:107FB000C00084FD01C0A8958091C6000895E0E648
:107FC000F0E098E1908380830895EDDF803219F02E
:107FD00088E0F5DFFFCF84E1DECF1F93182FE3DFCA
:107FE0001150E9F7F2DF1F91089580E0E8DFEE27F6
:047FF000FF270994CA
:027FFE00040479
:00000001FF
